:020000040800F2
:1000000030150020598900083D8800083F88000805
:100010004188000843880008458800080000000067
:1000200000000000000000000000000047880008F9
:1000300049880008000000004B8800084D8800082F
:1000400083890008878900088B8900088F89000848
:1000500093890008978900089B8900089F890008F8
:10006000A3890008A7890008AB890008AF890008A8
:10007000B3890008B7890008BB890008BF89000858
:10008000C3890008C7890008CB890008CF89000808
:10009000D3890008D7890008DB890008DF890008B8
:1000A000E3890008E7890008EB890008EF89000868
:1000B000F3890008F7890008FB890008FF89000818
:1000C000038A0008078A00080B8A00080F8A0008C4
:1000D000138A0008178A00081B8A00081F8A000874
:1000E000238A0008278A00082B8A00082F8A000824
:1000F000338A0008378A00083B8A00083F8A0008D4
:10010000438A0008478A00084B8A00084F8A000883
:10011000538A0008578A00085B8A00085F8A000833
:10012000638A0008678A00086B8A00086F8A0008E3
:10013000738A0008778A00087B8A00087F8A000893
:10014000838A0008878A00088B8A0008758800085F
:100150008F8A0008938A0008978A00089B8A000803
:100160009F8A0008A38A0008A78A0008AB8A0008B3
:10017000AF8A0008B38A00080000000000000000F9
:10018000B78A0008BB8A0008BF8A0008C38A000833
:10019000C78A0008CB8A000800000000CF8A000848
:1001A000D38A0008D78A0008000000000000000081
:1001B000DB8A00080000000000000000DF8A000861
:1001C000E38A0008E78A0008EB8A0008EF8A000843
:1001D000F38A0008F78A000800F5E070026891428F
:1001E00003D343681A44914202D380680028F5D1B2
:1001F0007047DFF86C17086890B94FF4805048607A
:100200004FF480324FF0FF30C86008610420DFF8FF
:1002100054378A604861C3F8BC01DFF84C070860B6
:100220000120704701F1080313F0070F0EBF0023F0
:10023000C3F1080303F007031944D21A8161C260B5
:1002400042F001034B60091D4FF0280C41F802C039
:10025000DFF80C271369C36170472DE9FC4B074693
:1002600001F1080010F0070F0FBF8946C0F1080028
:1002700000F0070001EB000902F1080111F0070F7F
:1002800006D002F10800C0F1080000F007000244A7
:100290001546A5EB090009EB0306A0EB030B43F0A1
:1002A0000303C9F80430AE4228BF01F005FA2879EB
:1002B000C10758BF01F000FABBF1100F38BF01F0C1
:1002C000FBF9B869854208D1F9688B44C7F80CB0CE
:1002D000BE614BF00100706051E1786985420AD13E
:1002E000B9688B44C7F808B07E614BF001007060BC
:1002F00046F80BB043E1686800F00301012940F0C3
:10030000AC80C008C0000190C0081F2839D8AC6874
:10031000D5F80C800090454508BF01F0CDF9A54205
:1003200008BF01F0C9F968680099C008C000B0EBC7
:10033000C10F18BF01F0C0F9009907F1280000EBC8
:10034000C100844206D039698C42C0F08180E268E5
:10035000AA427DD1A04506D1009839680123834087
:100360009943396076E0804506D0396988456FD376
:10037000D8F80800A8426BD1C4F80C80C8F808402F
:1003800068E0EC68D5F81880AC420CD0A8683969F0
:10039000884223D3C268AA4204BFA168A9421DD1E2
:1003A000C460A0601CE005F114010C6834B905F1CB
:1003B00010010C68A4B101E011460C6804F11402AC
:1003C0001068002802BF04F1100210680028F3D161
:1003D0003869814202D300220A6001E001F06CF921
:1003E000B8F1000F36D0E96907F5987000EB81008D
:1003F0000268954208D10460A4B9E86979680122CD
:1004000082409143796025E03869804508D3D8F867
:100410001010A94214BFC8F81440C8F8104001E0F9
:1004200001F04AF9B4B139698C4211D3C4F818808B
:10043000286928B1884226BF2061846101F03CF917
:10044000686938B13969884202D36061846101E02A
:1004500001F032F901996D188B4469684908490027
:1004600069604BF0010070604FEADB0446F80BB0A6
:100470001F2C23D807F1280000EBC4084546BBF128
:10048000100F38BF01F018F9386820FA04F1CA07D4
:1004900005D4012101FA04F404433C6007E0D8F8D4
:1004A0000800396988422CBF054601F005F9C8F8F3
:1004B0000860EE60B560C6F80C8060E05FEA1B2063
:1004C00008BF002123D0B0F5803F28BF1F211ED2D6
:1004D000A0F58072120C02F008029040A0F5805145
:1004E000090C01F004018840A0F580431B0CC2F107
:1004F0000E0203F00203521AD21A984002EBD032D5
:10050000D01D2BFA00F101F0010101EB4201F16174
:10051000002307F59872736102EB810033617A68FA
:1005200022FA01F3DC0707D4012303FA01F1114396
:1005300079600660B0611DE002681F291DBF49088F
:10054000C1F119010BFA01F1594600E00246506869
:10055000C008C000584516D002F11003C80F03EBC5
:100560008003490018680028F0D13869834204D319
:100570001E60B261F660B66001E001F09DF809F11D
:100580000800BDE8F68B396990688A4228BF884226
:10059000F3D3C6609660B060F2600020B061EEE711
:1005A0002DE9FE4F04468B46A5692E469046994696
:1005B0003146FFF711FE0268416802EB010AAAF119
:1005C000270111F007000EBF0021C1F1080101F061
:1005D00007010AEB0100A0F12F0706F110018F427D
:1005E00038BF374607F11802002101920091A8F1A7
:1005F000280259462046FFF715FE07F1080010F0C3
:10060000070F18BF01F058F81B20786007F10801A8
:1006100004F5E07090E80C5081E80C50C0F800B090
:10062000C0F80480C0F80C908160072201980099FE
:1006300000E0001D491C00F1080353454260F8D357
:100640000129D8BF01F038F8B74200F09580BF1BF0
:10065000301D321DC15949084900D15147F00100F0
:1006600070604FEAD70BF751BBF11F0F21D804EB95
:10067000CB0000F12805A846102F38BF01F01CF868
:10068000206820FA0BF1CA0705D4012101FA0BF109
:100690000843206006E0A868216988422CBF804694
:1006A00001F00AF8AE60C8F80C60C6F80880F56082
:1006B0006FE0380A08BF002123D0B0F5803F28BF83
:1006C0001F211ED2A0F58072120C02F00802904089
:1006D000A0F58051090C01F004018840A0F5804389
:1006E0001B0CC2F10E0203F00203521AD21A9840F8
:1006F00002EBD032D01D27FA00F101F0010101EB2D
:10070000420104EB8102002302F59870F1617361EC
:100710003361626822FA01F3DB0707D4012303FA8D
:1007200001F1114361600660B0611DE002681F299C
:100730001DBF4908C1F1190107FA01F1394600E06E
:1007400002465068C008C000B84216D002F110033B
:10075000C80F03EB8003490018680028F0D1206916
:10076000834204D31E60B261F660B56011E003B04D
:10077000BDE8F04F00F0A0BF0BE0216990688A420D
:1007800028BF8842F3D3C6609560B060F260002055
:10079000B06103B0BDE8F08F2DE9F041704F054620
:1007A0003868884608B9FFF724FDB96801EB0800EE
:1007B0002F30491E20EA010188457DD205F5D87603
:1007C000B06828B1326889188A4275D2884273D3DA
:1007D00000F0B2FF01001CBF0C6811F1010F6BD0DB
:1007E0003068201805F5D87230605368984238BFD9
:1007F00018467060A86960BB286908B1814200D2C0
:100800002961316174610020F0614FF0FF303A6876
:100810006A62286205F128020020D260926002F12B
:10082000080757611761801C10322028F5D34D4806
:10083000854208BFA4F1280228D055F8040CC0084E
:1008400005EBC002A2F108000A19121A283A014663
:100850001CE005F5E070024600E092687AB3136888
:1008600057681F44B942F8D1137B1F0727D4AB69DF
:100870001768BB4223D3D2F804C06744BB421ED2E0
:10088000A444C2F804C0E868A96922182846FFF702
:10089000C9FC1FE08068C0B103689342FAD1027BB3
:1008A000130712D4026801604368E41844604346A9
:1008B0002846BDE8F041D0E40020BDE8F0812A6977
:1008C000914238BF29610A19E5E7002322462846EC
:1008D000FFF766FEE8688045EED2A0EB0800A96944
:1008E000E86001EB0802AA6140F00100506048F0A6
:1008F0000300486001F10800BDE8F08130B4184BF6
:100900001A6882B94FF480525A604FF480344FF025
:10091000FF32DA601A610422124D9C605A61C5F8F8
:10092000BC21114A1A6011F1400F17D28269AAB195
:10093000C368283199420BD200F5E0710C68A242DD
:1009400003D34D682C44A24202D389680029F5D113
:10095000C16999423CBF4FF0FF32C26100F0A8BEAE
:10096000E8100020A80D00206859883C2DE9F84FB8
:1009700000258946090AC9F1000B08BF002323D0CE
:10098000B1F5803F28BF1F231ED2A1F58072120C43
:1009900002F008029140A1F580531B0C03F0040300
:1009A0009940A1F58044240CC2F10E0204F0020427
:1009B000D21A121BA14002EBD132D11D29FA01F348
:1009C00003F0010303EB4203074607F5987858F854
:1009D000230030B31F2B0FBF4C465C08C4F1190431
:1009E00009FA04F4AC46594600E064004268D208B3
:1009F000D200A2EB09028A4203D21100054600F0A0
:100A00006981426910304FEAD47B50F82B00002AEC
:100A10001CBF824294460028E7D18B466046B0BB9B
:100A2000BDBB012202FA03F35B005842796803431D
:100A30000B4000F04E81584203405B1E180B00F043
:100A40001000C340590901F00801CB409A0802F098
:100A50000402D3405C0804F002040818E3401018B4
:100A6000C3F3400620183044F3401B1858F8230005
:100A70000DE008464168C908C900A1EB09015945C4
:100A80003CBF8B46054601690029F2D14069002828
:100A9000F0D1002D00F01D81B868A0EB090083455E
:100AA00080F0178139698D42C0F011816868C008F3
:100AB000C00009EB0B01884218BF00F0FDFD05EBFB
:100AC0000906B54280F00381EC68D5F818A0AC4265
:100AD0000CD0A8683969884223D3C268AA4204BFEF
:100AE000A168A9421DD1C460A0601CE005F11401F9
:100AF0000C6834B905F110010C68A4B101E011468D
:100B00000C6804F114021068002802BF04F11002FE
:100B100010680028F3D13869814202D300220A60AC
:100B200001E000F0C9FDBAF1000F36D0E86908EB2A
:100B3000800001688D4209D10460200014D1E86969
:100B40007968012282409143796026E038698245C4
:100B500008D3DAF81010A94214BFCAF81440CAF832
:100B6000104001E000F0A8FDBCB13869844212D306
:100B7000C4F818A0286930B13969884226BF2061BD
:100B8000846100F099FD686938B13969884202D3FF
:100B90006061846101E000F08FFDBBF1100F0CD2A9
:100BA000D94449F00300291D6860281D51F8092027
:100BB00042F0010240F8092088E049F00300686033
:100BC0004BF0010070604FEADB0046F80BB01F28C5
:100BD0001DD807EBC00101F12804396821FA00F2A1
:100BE000D307A34605D4012202FA00F00843386077
:100BF00006E0A068396988422CBF834600F05CFD9E
:100C0000A660CBF80C60C6F808B0F4605EE05FEA5E
:100C10001B2008BF002123D0B0F5803F28BF1F2133
:100C20001ED2A0F58072120C02F008029040A0F5CE
:100C30008051090C01F004018840A0F580431B0C91
:100C4000C2F10E0203F00203521AD21A984002EBCC
:100C5000D032D01D2BFA00F101F0010101EB42016D
:100C6000F16100227261326108EB81007A6822FA38
:100C700001F4E30707D4012404FA01F11143796078
:100C80000660B0611DE002681F291DBF4908C1F15F
:100C900019010BFA01F1594600E002465068C008FC
:100CA000C000584518D002F11003C80F03EB8003B1
:100CB000490018680028F0D13869834204D31E60C7
:100CC000B261F660B66001E000F0F6FC14E100F0FD
:100CD000F3FC0EE18B46A2E6396990688A4228BF90
:100CE0008842F1D3C6609660B060F2600020B061C7
:100CF000ECE72DE9F84F0646884671684842014006
:100D0000491E080B00F01000C1404A0902F0080219
:100D1000D1408B0803F00403D9404D0805F00205CB
:100D20001018E9401818C1F34004281806F5987AFD
:100D30002044E14009185AF821104868C008C00052
:100D40000D46A0EB080909E001464868C008C0004C
:100D5000A0EB080048453CBF81460D4608690028C5
:100D6000F2D149690029F0D130698542C0F0BF80D5
:100D70006968C90808EB090BC900594518BF00F09C
:100D80009BFC05EB08008542009080F0B080EF6886
:100D9000AC69AF420CD0A8683169884223D3C268DD
:100DA000AA4204BFB968A9421DD1C760B8601CE05F
:100DB00005F114010F6837B905F110010F68A7B1EB
:100DC00001E011460F6807F114021068002802BF05
:100DD00007F1100210680028F3D13069814202D374
:100DE00000220A6001E000F067FC002C31D0E869C5
:100DF0000AEB800001688D4208D107608FB9E8696D
:100E00007168012282409143716022E0306984421E
:100E100005D32169A94214BF6761276101E000F091
:100E20004BFCB7B13069874211D3BC61286930B13E
:100E30003169884226BF3861876100F03DFC6869EE
:100E400038B13169884202D37861876101E000F0EE
:100E500033FCB9F1100F0BD24BF00300291D686071
:100E6000281D51F80B2042F0010240F80B203DE014
:100E700048F003012A1D696049F0010042F80800AA
:100E8000009941F80990D6F808804FEAD80BBBF1D9
:100E9000200F28BF00F010FCB8F1000F22D006EBA5
:100EA000CB00776900F12804A246B8F1100F38BFD3
:100EB00000F002FC306820FA0BF1CA0705D40121CA
:100EC00001FA0BF10843306006E0A06831698842FE
:100ED0002CBF824600F0F0FBA760CAF80C70C7F880
:100EE00008A0FC60C6F808900098706104E000F06B
:100EF000E3FB0020BDE8F28F05F10800BDE8F28FAA
:100F00002DE9FE4F0546AFF30080F52DDFF89C6715
:100F100080F004810B2D31BF10250B35ED08ED005D
:100F20003068EC08E04010F0030F46D0C04300F0FA
:100F30000100041906F1280000EBC408E700D8F806
:100F400008506868C008C000B84218BF00F0B4FB81
:100F5000D5F80890454508BF00F0AEFB4D4508BFE9
:100F600000F0AAFB6868C008C000B84218BF00F0D3
:100F7000A3FBC84507D13068012101FA04F420EA37
:100F8000040434600DE03069814508D3D9F80C10B1
:100F9000A94204D1C8F80890C9F80C8001E000F01B
:100FA0008BFB47F00300291D6860281DCA5942F0D9
:100FB0000102C25105F10804F8E0B168A94280F0CD
:100FC000BE80002800F0A1804FF0010808FA04F16B
:100FD000490000FA04F4484201430C4060420440D6
:100FE000641E200B00F01000C440610901F00801EC
:100FF000CC40A20802F00402D440630803F00203CC
:101000000818DC401018C4F3400718183818FC40C2
:10101000241806F1280000EBC40AE700DAF808906B
:10102000D9F80400C008C000B84218BF00F044FB63
:10103000D9F808B0D14508BF00F03EFBD94508BF3C
:1010400000F03AFBD9F80400C008C000B84218BF4D
:1010500000F032FBDA4506D1306808FA04F420EAE1
:10106000040434600DE031698B4508D3DBF80C00D3
:10107000484504D1CAF808B0CBF80CA001E000F054
:101080001BFB7F1B45F0030009F10402C9F80400B3
:1010900047F00101515109EB05020192D751B468A3
:1010A0004FEAD40ABAF1200F28BF00F005FB34B391
:1010B000CDF800A006F12800756900EBCA0AD346F6
:1010C000102C38BF00F0F8FA3168009821FA00F2CD
:1010D000D30704D408FA00F00843306007E0DAF8D8
:1010E0000800316988422CBF834600F0E5FACAF84F
:1010F0000850CBF80C50C5F808B0C5F80CA0B76084
:1011000009F108040198706150E07068C0B3294685
:101110003046FFF7EEFD040011D047E015F1400F17
:1011200028BF4FF0FF350AD20B35ED087068ED008F
:1011300028B129463046FFF719FC040036D1B068C3
:10114000A8421DD3411B726910290AD3501970613E
:10115000B16041F001034360415045F00305556023
:101160000BE00021B1607161131D40F0030151607B
:10117000111D1C5844F001040C5002F1080415E044
:10118000F06885420DD2401BB169F0604A19B26126
:1011900040F00100506045F003054D6001F1080486
:1011A00004E029463046FFF7F7FA0446AFF3008023
:1011B0002046FFF7EEBA002800D170472DE9F0472E
:1011C000A0F10805AFF30080DFF8E06431698D42DB
:1011D000C0F05982686800F00302012A00F05382CF
:1011E000C2084FEAC209C20705EB090839D42C68C6
:1011F00010F0030F00F04982604205448D42A14483
:10120000C0F041827069854200F0C680E408202C5D
:101210005ED2D5F80CA0AF68554508BF00F04CFA77
:10122000BD4208BF00F048FA6868C008C000B0EBD3
:10123000C40F18BF00F040FA06F1280000EBC4000C
:10124000874205D031698F423FD3FA68AA423CD128
:10125000BA452CD13068012101FA04F420EA0404D3
:101260003460454580F00F82D8F80440E00740F133
:101270000A82A10700F16881B069804540F09F8033
:10128000F168B5618944C6F80C9049F001006860C6
:1012900071698D4202D100207061B060F0694845EB
:1012A00080F0F38100213046FFF728FBEDE1824515
:1012B00006D03069824508D3DAF80810A94204D173
:1012C000C7F80CA0CAF80870CBE700F0F5F9C8E73A
:1012D000EC68AF69AC420BD0A868884222D3C168E1
:1012E000A94204BFA268AA421CD1C460A0601BE04E
:1012F00005F11402146834B905F1100214689CB1A8
:1013000001E01A46146804F114031868002802BFAB
:1013100004F1100318680028F3D18A4202D3002197
:10132000116001E000F0C8F9002F9AD0E96906F5D4
:10133000987000EB81000268954209D1046020009A
:1013400011D1E8697168012282409143716088E798
:101350003069874205D33969A94214BF7C613C6179
:1013600001E000F0A9F9002C3FF47BAF31698C4219
:10137000ABD3A761286928B1884226BF2061846168
:1013800000F09AF9686900283FF46BAF3169884230
:101390009BD36061846164E798F8040000F0030067
:1013A00003287FF45EAFC6F8089049F00101D8F831
:1013B000040040084000C8F8040069600AE0706951
:1013C00080450AD1B16875618944C6F8089049F032
:1013D0000100686045F8099057E1E408E400A14481
:1013E000E408202C3AD2D8F80CA0D8F80870D045E0
:1013F00008BF00F061F9B84508BF00F05DF9D8F802
:101400000400C008C000B0EBC40F18BF00F054F9CE
:1014100006F1280000EBC400874207D031698F42F3
:10142000C0F08580FA68424540F08180BA4507D116
:101430003068012101FA04F420EA0404346078E001
:10144000824506D03069824571D3DAF808104145EB
:101450006DD1C7F80CA0CAF808706AE0D8F80C4043
:10146000D8F8187044450DD0D8F808003169884282
:1014700023D3C268424504BFA16841451DD1C46061
:10148000A0601CE008F114010C6834B908F11001E7
:101490000C68A4B101E011460C6804F11402106854
:1014A000002802BF04F1100210680028F3D130694F
:1014B000814202D300220A6001E000F0FDF8002F13
:1014C00037D0D8F81C1006F5987000EB8100026840
:1014D00090450AD10460200012D1D8F81C00716830
:1014E000012282409143716023E03069874205D335
:1014F0003969414514BF7C613C6101E000F0DCF8D2
:10150000BCB131698C4212D3A761D8F8100028B160
:10151000884226BF2061846100F0CEF8D8F814001C
:1015200038B13169884202D36061846101E000F022
:10153000C3F849F00100686045F8099071698D426F
:101540000BD1C6F80890A0E064086400C8F8044015
:1015500049F00100686045F809904FEAD907202F4B
:1015600022D206F1280000EBC704A046B9F1100F03
:1015700038BF00F0A1F8306820FA07F1CA0705D497
:10158000012101FA07F70743376006E0A0683169D7
:1015900088422CBF804600F08FF8A560C8F80C5038
:1015A000C5F80880EC6070E05FEA192008BF0021F0
:1015B00023D0B0F5803F28BF1F211ED2A0F5807236
:1015C000120C02F008029040A0F58051090C01F0C5
:1015D00004018840A0F580431B0CC2F10E0203F009
:1015E0000203521AD21A984002EBD032D01D29FAC7
:1015F00000F101F0010101EB420106F598720023B0
:1016000002EB8100E9616B612B61726822FA01F3E0
:10161000DC0707D4012303FA01F11143716005606F
:10162000A8611DE002681F291DBF4908C1F1190109
:1016300009FA01F1494600E002465068C008C000BE
:10164000484526D002F11003C80F03EB8003490080
:1016500018680028F0D13069834204D31D60AA6164
:10166000ED60AD6001E000F027F8306A401E3062A6
:101670000BD1D6F8C80100E080680028FCD14FF0FB
:10168000FF30306201E000F017F8AFF30080BDE8F2
:10169000F087316990688A4228BF8842E3D3C560E9
:1016A0009560A860EA600020A861DEE7A80D002030
:1016B00030BC002070470000012000F053B8F0B4A7
:1016C0000246106895681318506803EB5004C00771
:1016D0001DD54D441BE013F8017B05F8017B491E25
:1016E000F9D1A0B1B60813F8011B06F00306032ECA
:1016F00008BF13F8016B01EB06214942801C294405
:1017000005D011F8016B05F8016B401EF9D1A34219
:101710000ED013F8016B16F0030104BF13F8011B80
:10172000C91C30090F28DAD113F8010B0F30D6E7A6
:10173000F0BC02F10C0070470749086808B10020AE
:1017400070470648C008C00008600549C908C900BC
:10175000091A0160704700BF2811002037150020CA
:101760003017002080B5AFF30080024A1100182026
:10177000ABBEFBE7260002002DE9F04F0FF2A41CE0
:10178000A1B0DCE90089CDE900892A9DDFF8DC9B66
:10179000049100248DF843500D944FF0FF38824699
:1017A00016461F460FE0B3462C461BF8011B049853
:1017B000D0470028049000F0A2800D98401C641EC1
:1017C0000D90F2D176193078252808D10021002219
:1017D0000791089209910A920B910C920DE06A46CA
:1017E0004146304600F0BAFF050001D10D98A1E056
:1017F000D9D50125E6E741F0010116F8010F2028AF
:10180000F9D023280CD02B2804D02D2805D030283F
:1018100009D076E041F00201EFE741F00401ECE786
:1018200041F00801E9E741F01001E6E70F9209E015
:101830000F98484505DA00EB800402EB4402303A89
:101840000F92761C3278A2F130000A28F0D330785B
:101850002E2818BFCDF8388022D116F8010F2A287B
:1018600007D138683860761C50F8042B38600E9227
:1018700016E02D280CBF761C002000220E920AE0F4
:1018800040B90E9A4A4505DA02EB820403EB4403A1
:10189000303B0E93761C3378A3F130020A2AEFD343
:1018A000ADF8401021A0317800F062FF08B116F8C1
:1018B000010B8DF842009DF84200682804D1307871
:1018C00068280AD1622105E06C2804BF30786C28B2
:1018D00003D171218DF84210761C12A806903A4669
:1018E00016F8013B02A9504600F064F838B912AA74
:1018F00002A9504600F0C8F900287FF564AF4046C1
:1019000018E02A2892D13A683A6052F8040B3A60FB
:1019100000280F9003D540420F9041F00401761C3F
:1019200095E700000000000000000000686A6C7489
:101930007A4C000021B0BDE8F08F622820D06828E2
:1019400011D06A2803D06C2827D0712825D10868C7
:10195000C01D20F007000860D0E9002308300860AF
:10196000194610467047002A0A680A60106803D0BA
:10197000121D0A6000B217E0121D0A6080B217E063
:10198000002A0A680A60106803D0121D0A6040B27B
:101990000AE0121D0A60C0B20AE0002A0A680A6062
:1019A000106803D0121D0A60C1177047121D0A602B
:1019B000002170477CB50D4611461C462E69B4F1D6
:1019C000250200F04F811C3A00F08480121F022A89
:1019D00040F280800E3A00F00981521F59D0093A36
:1019E00078D0921E16D0521E35D0521E022A71D9BE
:1019F000121F30D0521F00F09880521E49D0521E44
:101A000000F0E280D21E00F0FF80921E41D0D21E74
:101A10003FD02DE195F83A406C2C09D06869421C02
:101A20006A610A680A6052F8043B0A60335429E18B
:101A30000A680A6052F8043B0A600093002201928F
:101A40004FF0FF332B636A46294600F098F90028CF
:101A500040F1188103E195F83A000122FFF76DFF8C
:101A6000C5E90001002904D56869411C69612D227E
:101A70000DE0288F810704D56869411C69612B221C
:101A800005E0C00721D56869411C696120223254F4
:101A90001BE095F83A000022FFF74FFFC5E900016F
:101AA00095F83800010710D5D5E90023002B08BFB1
:101AB000002A0AD044F02000782806D16869302135
:101AC0003154401C421C6A613454214668693044D8
:101AD000E86087E00868C01D20F007000860D0E9D2
:101AE000002308300860C5E90023D5E90001C80FCC
:101AF00004D06869411C69612D220DE0288F81079F
:101B000004D56869411C69612B2205E0C00704D532
:101B10006869411C69612022325468693044E86078
:101B20002146284600F036FAACE005F13A0250783A
:101B300020B14FF0FF340FF6043074E010786228C3
:101B400008D0682824D06A2812D06C282ED071289A
:101B50000ED02BE00A680A6052F8040B0A6020B924
:101B60004FF0FF340FF6EC205DE0E96A017089E088
:101B70000A680A6052F8040B0A6020B94FF0FF347B
:101B80000FF6D0204FE0EA6AD317C0E9002379E0CE
:101B90000A680A6052F8040B0A6020B94FF0FF345B
:101BA0000FF6B0203FE0E96A01806BE00A680A6046
:101BB00052F8040B0A6020B94FF0FF340FF694205E
:101BC00031E0E96A01605DE00A680A6052F8040BDE
:101BD0000A60002120F0000221F0FF33C5E9002354
:101BE000EE607821284600F02DF94BE06C2285F854
:101BF0003A200B680B6053F8042B0B6052BB4FF07C
:101C0000FF340FF684200EE095F83A206C2AF0D0CD
:101C10000868086050F8044B0860EC603CB94FF06D
:101C2000FF340FF6482000F0BDFD201A76BD2E6B64
:101C3000002E04D5204600F0D5FD044608E03246CB
:101C40000021204600F0EAFD002814BF041B3446A2
:101C5000AC6117E0294600F092F8002812D54FF049
:101C6000FF3076BD6869411C69612522325409E064
:101C70006969481C686125227254210002D0431C06
:101C80006B613454002076BD2DE9F0410E460546C7
:101C90009046726B7069316AB46A121AB069521A4E
:101CA000716A121AF069521A121A96F83800141B47
:101CB00041070DD4002C0BDD2746B0682021A84732
:101CC0000028B06057D0F06A401C7F1EF062F4D14B
:101CD000736942463146284600F098FC00284AD1F4
:101CE000376A002F0ADDB0683021A8470028B060AD
:101CF00041D0F06A401C7F1EF062F4D1B369F268F3
:101D00003146284600F082FCA8BB776A002F09DD27
:101D1000B0683021A847B06068B3F06A401C7F1EED
:101D2000F062F5D1F068B169F3694218314628468E
:101D300000F06CFCF8B9B76A002F09DDB0683021FB
:101D4000A847B060B8B1F06A401C7F1EF062F5D1C0
:101D500096F8380041070BD5002C09DDB06820212A
:101D6000A847B06038B1F06A401C641EF062F5D13B
:101D70000020BDE8F0814FF0FF30BDE8F0812DE993
:101D8000F8470D46A3B02F6B002F0646904648BF7C
:101D90006FF000470FF60C1400F06CFDD4E900233F
:101DA000696B4018CDE90123812828BF4FF0FF302F
:101DB00042D20024002F33DDD8F8001001AA684673
:101DC00000F0CEFC8146B9F1000F38D4D8F80000FD
:101DD00010B9B9F1010932D44F4521DB6869484493
:101DE00081280AD30021696303AA29463046FFF7F8
:101DF0004BFF040014D40020686103ABD5F814A095
:101E00004A46694603EB0A0000F03AFDCA44C5F8A9
:101E100014A058F8040B002818BFA7EB0907C9D174
:101E20004CB903AA29463046FFF72EFF044614B9E1
:101E3000002068616863204624B0BDE8F0874FF059
:101E4000FF34F8E72DE9FC4307466F293E6908BFD8
:101E5000082405D041F02000782814BF0A2410245B
:101E60003C25D7E90023642918BF69299046994683
:101E700005D1002B03D5D8F1000869EB4909B9F168
:101E8000000F08BFB8F1000F1FD1386BE8B9082C5C
:101E90004CD197F83800010748D530203B2586F80B
:101EA0003B0043E000280ED597F8380000F01400FE
:101EB000102808D17B6B7969386A5B1A1B1A9A1A49
:101EC000002AC8BF3A62BDE8F3838DF8001040468F
:101ED00049462246E31700F0DFFC3032D0B26D1ED7
:101EE0003A28019504DB9DF80000A0F151018A1801
:101EF0007255404649462246E31700F0CDFC804625
:101F00005FEA010908BFB8F1000F03D0F868711942
:101F10008842DCD3082C09D197F83800010705D591
:101F2000705D302802D06D1E30207055C5F13C0226
:101F3000BA617119F960386B8242B3DA821A3A6277
:101F40004FF6EF70398F01403987BDE8F3832DE9F3
:101F5000D04306460F4614464FF00008DFF81094B1
:101F600012E0E00707D542464B463046394600F0BE
:101F700017FD06460F464046494642464B4600F08E
:101F80000FFD641080468946002CEAD13046394660
:101F9000BDE8D0832DE9F84F05468A464AF0200473
:101FA0008EB0D5E90089612C02AE09D0286B0028DB
:101FB00048BF062003D408BF672C01D10120286345
:101FC000D5E900014A005215521C0DD10B030BD06C
:101FD000AAF1610103201A29A86102D20FF2CC6193
:101FE00010E00FF2CC610DE04A005215521C0ED1E8
:101FF0000B030CD1AAF1610103201A29A86116D3A1
:102000000FF2B461E868032200F03AFCC0E1CDE9C8
:102010000C01DDE90C2323F00043B3F5801F0DD242
:102020000027002B08BF002A019703D111E00FF20F
:102030008461E7E701AA00F085FD0AE0CD48CE49BA
:1020400000EB1350DDE90C2301900B40CB49104607
:102050001943C5E90001612C0DD1E86830210170F8
:10206000821CBAF1610FEA600CBF782158214170DF
:102070006869801C6861D5E90001CDE90C01DDE9E2
:102080000C2333F0004104BF0028002300F04881F6
:10209000612C40F0A080286B494600284CBF4FF0CF
:1020A000210B00F1010B404600220023DDE90C89E1
:1020B00000F080FD01990BF1010738BF89F000495C
:1020C000091F002F01918DF808200DF1090040F340
:1020D0003581A94900910646404649460022002321
:1020E00000F080FD80F029814800400D00F11C02C5
:1020F00011D0002A0FDD40F2FF739A4205DBA049A0
:1021000009F000400143002011E0009B194041EA22
:10211000025140460BE028F0000039F0004108BFB2
:1021200000280FBF49461C22494600F073FD804637
:10213000894600F00DFEFF1F002F044609DD00F068
:1021400025FE02460B464046494600F031FE8046D9
:102150008946F01D072104E004F00F0200F8012D6C
:102160002411002C01DD491EF6D5491E5CBF00225A
:1021700000F8012DF9D5DCE00020194602AA0A4436
:1021800000E05B1E12F80149491E8442F9D00F2875
:1021900004D10DF10900425C521C4254002904D5BF
:1021A0000198001D02AE5B1C0190581E0CD4311822
:1021B000AAF13A040A783032D7B23A2FA8BFA2184F
:1021C000401E01F80129F5D5286B002840F1A780B1
:1021D000591E2963A3E001996A4A47F29750414387
:1021E00091FBF2F2019229F00046D2F1070204DDE0
:1021F00040463146FFF7ABFE0AE0524200206249FA
:10220000FFF7A5FE02460B464046314600F042FE6F
:102210008046662C286B06BF019F0A3706273F18A9
:10222000142FC8BF142730208DF8080089460DF1FF
:10223000090000E03046002F34DD0646404649469E
:1022400000F04CFF01460A4606F1080304200A2666
:10225000B2FBF6F606EB860EA2EB4E02303203F826
:10226000012C0A22B6FBF2F202EB820EA6EB4E061E
:102270003036401E03F8026DE9D1083F002F03F10C
:102280000806D7DD084600F03DFF02460B464046F3
:10229000494600F08DFD00223C4B00F081FB80465A
:1022A0008946CBE70DF10901401A0DF1090604E05A
:1022B0000199491E401E0191761C31783029F7D0D2
:1022C000662C02D10199491C03E0652C0CBF012149
:1022D00000212B6BCB189842B8BF431E002B1ED495
:1022E000834204DAF05C3528A8BF392000DA3020B8
:1022F0001946721E02EB010800E05B1E18F80199F6
:10230000491E8145F9D0392802D1705C401C7054B7
:10231000002904D50198401C16465B1C01900198C9
:1023200000B200901BB232465146284600F034F805
:102330002EE0C61D002F3FF7CFAE30460DF109014C
:10234000401A03465845C8BF5B46002B0DF10906ED
:102350003FF53AAF8342BFF60FAF0DF10900C15C04
:1023600007297FF709AF0F2007E70000CBCCCC0C83
:102370000000244002FCFFFFFFFF0F800000E03F51
:102380000000F07FA08601000000F03F84D7974155
:102390000FB0BDE8F08F00002DE9F84783B0064686
:1023A0008A461746984600F0DDF9B8F1000F406AFA
:1023B000356B90F8009002DC4FF00108BFA74AF09F
:1023C0002000BDF93040662808BF641C15D067287E
:1023D00040F0848014F1040FC0F28680AC4280F299
:1023E000838096F83800641C010702D4A845B8BF62
:1023F000454620B22D1A48BF00250FFA84FAF0682E
:10240000B169BAF1000F25DC4A1C30234354002D7A
:1024100003DC96F83800010703D5F06800F8029055
:10242000521C15EB0A0FB8BF6C4220B2441941424E
:102430004445B8BFA046B26171620FFA88F5F561F4
:10244000F068B3692A463946184400F019FA641B4B
:10245000B462C4E022B29045084417DA42463946D5
:1024600000F00EFAB0694044B061AAEB0801002DFB
:10247000716203DC96F838100A0705D5F16801F897
:102480000090F069401CF061B562A8E0394600F0A8
:10249000F7F9B069002D5044A8EB040803DC96F866
:1024A00038100A0703D5F16801F80090401CB061AC
:1024B0000FFA88F08542F368B069B8BFA8460FFAF2
:1024C00088F207EB0A01184400F0DAF9B1690FFA53
:1024D00088F00144B161281A706280E0BAF1610F9E
:1024E00014D14FF0700A16E0A84504DA96F83810B7
:1024F0000A0758BF45466D1E48BF0025BAF1670F51
:1025000014BF4FF0450A4FF0650A04E0BAF1410FDD
:1025100008BF4FF0500AB169F368481CB061002D44
:1025200017F8012B5A5403DC96F838100A071BD50C
:10253000F168431CB36101F80090002D14DDA8F18F
:1025400001080FFA88F039468542F768B8BFA846F7
:102550000FFA88F2F81800F093F9B0690FFA88F1D1
:1025600008446D1AB0617562F068B1690844002CC6
:1025700080F800A003D42B224270811C03E02D219F
:1025800041706442811C00206A460AE023460A2406
:1025900093FBF4F404EB8405A3EB450302F8013B41
:1025A000401C24B2002CF1DC012806DC4AF0200299
:1025B000652A04BF302201F8012B48B9302001F808
:1025C000010B07E0401E1DF80030303301F8013BDD
:1025D0000028F7DCF268B0691044091AF16196F836
:1025E000380000F0140010280DD17269B169706ACA
:1025F0008A18F1698218B06A8A188218706B824250
:10260000BCBF821A326204B0BDE8F087F8B5054657
:102610000E4617461C46002074B117F8011BB0681F
:10262000A847B06030B1F06A401CF0620020641E20
:10263000F3D1F2BD4FF0FF30F2BD00007072696E51
:1026400074665F733A20256E20646973616C6C6FE9
:10265000776564007072696E74663A206261642006
:10266000256E20617267756D656E74007072696E9B
:1026700074665F733A20626164202573206172671B
:10268000756D656E740000007072696E74665F73BC
:102690003A2062616420256C7320617267756D65F4
:1026A0006E74000000000000000000006E616E000B
:1026B0004E414E00696E6600494E4600300030B40F
:1026C000002513E050F8042BD30744BFA9F1010300
:1026D0009A18091F042942F8045BFAD213468C07A2
:1026E00044BF15809B1CC90748BF1D7050F8041BD0
:1026F0000029E7D130BC70471B48704770B453685D
:10270000D418042B09DA41B1057804F8015B10F8FC
:10271000016B16B15B1C491EF3E7536070BC704738
:1027200038B514461D4661B1FFF7E8FF61686A6B72
:10273000204690476FF00102811A02D0491E01D055
:1027400001E003E005E00021616032BD6FF00100AF
:1027500032BD4FF0FF3032BDDA6B1047024BDFE77E
:10276000014BF9E701487047CC010020940100209B
:10277000C9B202788A421AB11CBF10F8012FF9E7DA
:1027800018BF00207047B1F5807F02D34FF0FF30B3
:1027900070470170012070470078401E8041C0439F
:1027A000C00F704780B500B906A005490B681BB182
:1027B00022220021984701E0FEF77EFF222002BD81
:1027C00024110020636F6E73747261696E742068E7
:1027D000616E646C65723A20626164206D6573732A
:1027E0006167650000F10103810704D010F8011B47
:1027F000820781B1FAD10268A2F10131914311F04F
:10280000803104BF50F8042FF6E709BAB1FA81F11C
:1028100000EBD100401CC01A70470000C9B283070A
:1028200006D0521E22D310F8013B9942F7D11FE087
:10283000083A13D302F1040241EA012141EA0141BD
:1028400050F8043B121F21BF4B40A3F1013C2CEA7E
:10285000030C1CF0803FF3D0C9B2001F083210F8FF
:10286000013B521E28BF91EA030FF8D818BF012080
:10287000401E704780B5FFF73FFF006C02BD0000AF
:102880004AB1000011F8013B521E00F8013B1CBF89
:1028900011F8013BF8E77047D3BBD9B1B2F5803FDF
:1028A0005BD2022A1ED98C46B1FBF2F102FB11C3A6
:1028B0001B0443EA1043B3FBF2FC02FB1C3380B25F
:1028C00040EA0343B3FBF2F002FB103240EA0C4053
:1028D00000237047022A05D98446B0FBF2F002FBC0
:1028E00010C270474AB105D100F0010249085FEA01
:1028F0003000704700220023704700F011BC0B002D
:102900000200002100207047F7D300220023704707
:10291000904271EB030CF2D370B5B1FA81F4B3FAC3
:1029200083F52C1BA340C4F1200532FA05F633438E
:10293000A2405FF00046E64002E05B085FEA320238
:10294000841A71EB030524BF204629467641F4D34F
:1029500002000B003000002170BD70B5B1FA81F4A7
:10296000B2FA82F5C4F120046419B4F12006DAD376
:10297000B2405FF00044F440002502E052085FEAF4
:102980003303C61A71EB020E24BF30467146644110
:102990006D41F3D302000B002000290070BD000040
:1029A000B0B581EA030C0CF0004C40F2FF7515EA5B
:1029B00011541DBF15EA1357AC42AF4239E0E41978
:1029C00023EA455343F48013C90241F0004141EA30
:1029D000505EC7021100A7FB020200284FF0000062
:1029E000EEFB01204FF00001E3FB072118BF42F08E
:1029F0000102401800214941E3FB0E01A4F5806467
:102A00000F0302D252004041494154F101046CDDF0
:102A1000470872F1004250F1000051EB0451A1F55A
:102A200080115CBF41EA0C01B0BD4CEA05510020A9
:102A3000B0BD05EA1357AC4214BFAF4241E050EAC3
:102A4000410E1CBF52EA430E02E061460020B0BDB9
:102A500024423C441BD15FEA070EF6D0090302BFB3
:102A600001460020AEF1140EB1FA81F7AEEB070477
:102A700001FA07FE0C37C7F1200100FA07F7C8403A
:102A80004EEA000E23EA455343F48013A2E733F0E5
:102A90000043B3FA83F704BFB2FA82FE77440B3FD8
:102AA000E41BB7F1200E2FBF02FA0EF3BB40C7F1B3
:102AB000200E22FA0EFE38BF43EA0E03BA40641C11
:102AC00082E750EA410E14BF52EA430E6FF0000154
:102AD0004FF4001717EB430F8ABF194617EB410F4E
:102AE000B5E74CEA05510020B0BDD4F10104B4F1C2
:102AF00020070FDAC4F12007520828BF42F0010274
:102B000010FA07F501FA07F7E1BF2A43E04038431E
:102B1000E1400FE0352C98DCC7F1200452EA400276
:102B200020FA07F218BF42F0010231FA07F0A14083
:102B30000A43002172F1004250F1000051EB0C01F8
:102B4000B0BD000010B5144600F002F8226010BDC0
:102B5000C1F30A5343B14A0012F5001F28D2A3F271
:102B6000FE32A1EB0251704750EA410C20D001F037
:102B7000004C31EA0C01B1FA81F204BFB0FA80F3E3
:102B8000D2180B3AB2F120032CBF00FA03F19140A6
:102B900041EA0C013EBFC2F1200C20FA0CF31943AC
:102BA0009040524240F2FD33D21A01EB035170477C
:102BB000002270474FF4001C1CEB410F94BF1CEB2C
:102BC000430F09E041EA030C50EA4C0C52EA0C0CAA
:102BD00003D2994208BF9042704714BF8B42824291
:102BE000704700004FF4001C1CEB410F94BF1CEB1E
:102BF000430F09E041EA030C50EA4C0C52EA0C0C7A
:102C000003D28B4208BF8242704714BF9942904260
:102C100070470000124254D440F2FF7C1CEA11536A
:102C20000FD0634531D09B1863453CBF01EB025187
:102C3000704701F0004141EA0C510020AFF30080E1
:102C4000704750EA410320D001F0004C91EA0C019A
:102C50001CD0B1FA81F30B3B9A420DD9D21A99409C
:102C600051EA0C01C3F1200C20FA0CFC614498409D
:102C7000531C40F2FF7CD7E7914041EA0C01C2F1BE
:102C8000200C20FA0CF3194390407047B0FA80F3FF
:102C90001533202BE0D3202AEED3203A203B9A4252
:102CA00009D9D21A00FA03F141EA0C010020531CA1
:102CB00040F2FF7CB8E700FA02F141EA0C01002083
:102CC0007047524240F2FF7C1CEA11530DD063451D
:102CD000DBD0B2EB030C3CBFA1EB025170470CF10F
:102CE000010221EA035141F4801150EA410CCCD099
:102CF00001F0004C352A27DC30B481EA0C01B2F136
:102D0000200309DAC2F12003044601FA03F5D0409A
:102D10002843D1409C400CE0C3F12002450020FA3A
:102D200003F418BF44F0010421FA03F091400C436E
:102D3000002174F1004550F1000051EB0C012442D8
:102D400030BC7FF47BAF70476146002076E700001F
:102D5000C1F30A5340F2FE329B1A14DDD3F1200373
:102D60004FEAE17208DDC90241EA505141F00040EA
:102D7000D84080185040704703F2E13010B1D24380
:102D800082F000407047002070470000C11768B112
:102D90004840401AB0FA80F29040D21CC907C2F5F0
:102DA000846241EA025202EBD021400570470000E4
:102DB00070B44FF0004591EA030F40F1B3816B40CE
:102DC000841A71EB030603D2001BB141121973413F
:102DD0004FF4001C1CEB410F34BF7CEB430442E07A
:102DE0000C0DA4EB1356352E4FDC45EAC323DB0A4A
:102DF00045EAC121C912B6F120050DDD63FA05F6D9
:102E0000EB4086EA0305124218BF45F00105C018E1
:102E100051F100010CD213E062FA06F5F240554080
:102E2000F3415A40B340F3405A408018594107D308
:102E300049085FEA30005FEA350528BF45F0010523
:102E400001F58011420875F1004250F1000041EB9C
:102E500004514E0016F5001F70BC38BF70470020AB
:102E6000090D090570471CEB410F10D252EA4306C9
:102E70000BD0BCEB410F05D80C0DAB43661E342EB6
:102E8000B6DD02E0AB438018594170BC704770BC9E
:102E900070470000F0B540F2FF7581EA030C0CF0BA
:102EA000004C15EA11541DBF15EA1357AC42AF424E
:102EB000E5E0BC41C1F31301C3F31303801A994148
:102EC00043F4801304D2641E4000494180185941E4
:102ED000C90241EA5051B1FBF3F603FB1611A2FB04
:102EE0000675D7EBC020A94102D2761E8018594141
:102EF000C90241EA5051B1FBF3FE03FB1E11A2FBD4
:102F00000E75D7EBC020A94103D2AEF1010E801897
:102F10005941890241EA9051760546EA8E2EB1FB6D
:102F2000F3F603FB1611A2FB0675D7EB8020A9412F
:102F300002D2761E80185941C90241EA50514EEA28
:102F4000060EB1FBF3F603FB1611A2FB0675D7EBD9
:102F5000C020A94102D2761E80185941C90241EA17
:102F60005051B1FBF3F703FB1711A2FB0735D3EB6D
:102F7000C020A94167F100070CBF004247F00107DC
:102F800066F3D5274FEA1E31B80814F5806412DDC8
:102F9000BD0775F1004250EB0E5051EB045111F595
:102FA000801F5CBF41EA0C01F0BD4CF07F6141F035
:102FB000E0410020F0BDBD076D0840EA0E5041F42D
:102FC0008011D4F10104B4F120060ADAC4F120061C
:102FD0000200E04001FA06F3E1401843B240154315
:102FE0000EE0342C13DCC6F1200445EA40056D08E0
:102FF00020FA06F2154321FA06F0A1400D43002104
:1030000075F1004250F1000051EB0C01F0BD0020C1
:103010005FEA0C01F0BDCFB992185B41B3FA83F7B8
:1030200004BFB2FA82F6BF190B3FB7F120062FBFDB
:1030300002FA06F3BB40C7F1200622FA06F638BFB3
:103040003343BA401CB1E419641E33E77F4231F0C8
:103050000041B1FA81F404BFB0FA80F6A4190B3C28
:10306000B4F120062FBF00FA06F1A140C4F12006FA
:1030700020FA06F638BF3143A0403C1B1AE7AC42A9
:103080001ABF05EA1357AF4212E050EA41061CBFCF
:1030900052EA4306BFE750EA4107304661461CBF8B
:1030A00041EA0551F0BD52EA430C08BFC143F0BDEF
:1030B00000204FF4001616EB410F98BF16EB430F9C
:1030C00008BF16EB410F24BFC14305E016EB430FC9
:1030D0000CBF61464CEA0551F0BD0000400D491897
:1030E00040EA81200CD2490DA1F58061491C40F0D5
:1030F000004005DBD1F11F0154BFC840C017704725
:1031000000207047014648B1B0FA80F18840C91CE0
:10311000C1F58461090501EBD0214005704700002D
:1031200070470000841A71EB030604D26E40001B46
:10313000B141121973414FF4001C1CEB410F34BF15
:103140007CEB430683E00C0DA4EB1356362E00F304
:103150007C80012E45EAC32341DC43EA525312BF6F
:10316000D20292025B08240545EAC12141EA50518E
:10317000D2EBC020994125D407D1B0FA80F610FADD
:1031800006F162D00020203608E0B1FA81F6B140A5
:10319000C6F1200220FA02F21143B0404FEAF47463
:1031A000B4EB465434F001064FEA74040AD8D6F55D
:1031B0000016760D04F00044F04061FA06F250402B
:1031C000F1404840C00A40EA415021F0004128BF88
:1031D0005FEA500550F1000044EBD12135E0DB0AF5
:1031E00045EAC121C90AB6F120050EDD42EA0242D4
:1031F000120CC5F1200603FA06F6EB4042EA06057A
:103200006D42984161F100010DE062FA06F5F2406D
:10321000554063FA06FC82EA0C02F3405A406D42C4
:10322000904161EB030111F4801F05D1641E62051A
:1032300002D06D004041494121F48011430875F1ED
:10324000004350F1000041EB045170BC70471CEB8F
:10325000410F15D223F0004352EA43060BD04FEA48
:103260004C0CBCEB410F04D80C0D661E342EB7DDA0
:10327000EBE7801A994150EA410608BF0021E4E7D4
:1032800008BF1CEB430F28BF6FF00001DDE7000013
:103290002DE9F04786B0044601250FF6AC08DFF8AB
:1032A000FC970FF69C0ADFF8F87706E0032D11D0A3
:1032B000012D02D0022D0BD10CE0002100913868C5
:1032C00040F001003860396801F0010100910BE025
:1032D000042D0AD100200090396841F001013960C5
:1032E000386800F00100009000983AF8151001913C
:1032F00001220321039204911CB9002000F018F868
:103300000FE0012C0DD1DFF89C0700F011F818F840
:10331000056000220F2170B200F032FC70B200F0A4
:103320004CFC6D1C042DC1DD002006B0BDE8F0870B
:10333000029001A959F8250000F06ABC2DE9F0417E
:10334000DFF86447DFF864576178DFF864670220CC
:10335000207001F0E0016170002060802071012187
:103360006072608120732172DFF8480700F01DFD54
:10337000012810D100212072617200204E21A0721C
:10338000E17200F04EF800206072608100F049F8B0
:1033900000F0D9FA3BE04021DFF81C0700F005FD02
:1033A0006FF0040740B9607840F0010000216070C0
:1033B000A170E770217123E0DFF80087802140468B
:1033C00000F0F3FC48B96078A77040F0010060702D
:1033D00000220020E070207113E04021404600F000
:1033E000E4FC10B900F024FB0AE04FF40051DFF8D0
:1033F000D00600F0DAFC88B90521A070E1702071D8
:1034000000222021284600F0D6FC00F017FB2846B9
:10341000BDE8F0410122202100F0CDBC00BFBDE895
:10342000F0812073052204F10801304600F062BDEE
:1034300001B54FF6FF7301226946DFF8880600F0F8
:10344000C8FD009802BD7FB500F014FF00F008F938
:1034500000F049F96846102100F026FFDFF86846C1
:10346000DFF86806206004F13005DFF86406A0622A
:103470004FF4803101200022E06160616160A26050
:103480002261227684F82020E262E2602A702046DF
:1034900000F00EFF0A20012100900191002202920B
:1034A0006946204600F02CFF0FF28C60DFF82416EE
:1034B000D0E90023CDE90023C4F8941204F5257661
:1034C000304601F049F8002100910022019269463E
:1034D000304601F055F8DFF80006A8610121297790
:1034E000002028620221A862E8622863A86369625A
:1034F0006963012000212864E9636964A96404F117
:10350000480001F065F8DFF8D405286504F184056A
:1035100000F094F804F1800001F05AF8DFF8C005DB
:10352000686304F1BC0500F089F804F1B80001F00B
:103530004FF8DFF8B005DFF8B0156863A963002025
:103540000121E86329646864A864E8642865686503
:1035500004F1F005284601F01DF90021284601F08C
:1035600071F900F00AFA04F59E75DFF8800528600D
:1035700000214FF4007068602861A960E960A961CA
:10358000E9614FF4FA50686101212962284601F08F
:1035900085F9DFF85C05A864FF21E964012028654E
:1035A0000021A8656965E96529666966A96604F56B
:1035B000C27001F0C1FA04F5E875DFF83805286437
:1035C00000216964A964E96429656965A96504F550
:1035D0000474204601F032FB4FF40061204601F0F4
:1035E00063FCDFF81405286000210C2068614FF4AB
:1035F000E134A960E9602961A961E9616C6028464C
:1036000000F0ACFCDFF8BC04DFF8F014016000222D
:103610000C218260C260026141618261C2614460CA
:1036200000F09CFC01F0FCFD0120FFF731FE0FF2E1
:10363000F04001F015FEFFF781FEFCE700200121BC
:103640006860E86028616861E861297001200222F1
:1036500000216862AA60AA612962A962E9627047D2
:1036600018B5A9B0DFF898441CA821463422FFF70A
:1036700007F901A8142100F017FE06A804F134018F
:103680005822FFF7FDF800F0ECF91C911D92022181
:103690004FF48002229123920821C822249125927E
:1036A000022107222691279228911CA801F0CCFF25
:1036B00000F0C9F9C02108220891079202210422D2
:1036C0000A91099240F2711006904FF000610022B9
:1036D0001291139210921A920D92119206A801F073
:1036E000D3FD2AB010BD2DE9F84386B068461421F9
:1036F00000F0DAFD0024DFF8A803DFF80864DFF843
:10370000AC53DFF8BC83DFF8B47305940168DFF8CD
:10371000A84341F010010160026802F01002059216
:10372000002205990592036843F0040303600168D1
:1037300001F0040100F0FAF843F02003036001688F
:1037400001F0200100F0F2F843F08003036001680B
:1037500001F0800100F0EAF843F001030360016822
:1037600001F0010100F0E2F843F002030360016898
:1037700001F0020100F0DAF843F040030360016851
:1037800001F040010591059905923821036843F045
:1037900008030360006800F00800059005983046B3
:1037A00000F009FB00F0CFF800224FF46041204602
:1037B00000F001FB00224FF48071404600F0FBFA5C
:1037C000382100F0D2F8304600F022FA00220292AE
:1037D0000392402002210090019103220492694645
:1037E000304600F015FA80200121009002916946D0
:1037F000DFF814630196384600F00AFA4FF480604F
:103800000221009000F0A4F802220492384600F051
:10381000FFF902210091019600210291284600F053
:103820008AF8012100910021029101966946DFF892
:103830008492484600F0ECF9202100F096F82846E2
:1038400000F0E6F90022029203920120022100908A
:1038500000F084F84FF4006100910196002102917C
:10386000384600F068F812210191012202924FF4CB
:103870004060032100900391042200F05FF80221D0
:103880000191002202924FF4805003210090039195
:10389000072200F053F84FF4604100F066F800F0A2
:1038A0004FF84FF480750095012100F051F8404623
:1038B00000F0AEF900224FF4004700970292039205
:1038C00002210191012204926946484600F0A0F9C4
:1038D0004FF400510091019601210291404600F001
:1038E0002AF800210097029101966946404600F0AF
:1038F0008FF93020022101910022029203210090D1
:103900000391062200F01AF840210091019601214E
:103910000291204600F00FF80022009502920392D7
:10392000022100F01BF807B0BDE8F083059105996E
:10393000059203687047694600F06AB904926946C7
:10394000204600F065B900222021284600F033BA55
:10395000019100220292039269467047019102226E
:1039600004926946204600F053B9009101220021DB
:1039700002910391019269467047F0B587B068469D
:103980001C2100F091FC1021002010225F4C604EA1
:103990006161A0600F21009101910391E06011210C
:1039A0002061A061E0616062A062E0622063606308
:1039B000A063E063206460640492059106904FF078
:1039C0002045FF2725606660029700226946204651
:1039D00001F0CEFF0021E16504201021A0656166A1
:1039E00000204FF480512066A066E0666067A16702
:1039F000E067002104F18400C4F880100023102245
:103A0000016041608360C160016104920F20112157
:103A1000009001900390059100220692256566654D
:103A20000297694604F1500001F0A2FF07B0F0BD13
:103A300005200021A070E170217170470522214608
:103A4000304600F057BA022102910F204FF4805106
:103A500001900022049103920592032101A801F034
:103A6000B1BF002000902B48016841F080510160F7
:103A70000021006800F080500090009826480091D6
:103A80000121026842F4404202604FF4A022006823
:103A900000F44040009000987047000000000020B3
:103AA00030380240000021100011002000080240C0
:103AB0000C090020000002400004024000140240F3
:103AC0000018024070100020640600200020014011
:103AD0000100000F0074004020600140206401409C
:103AE000E064014000600040FFEAC0000038004090
:103AF000001000A0002C0140001C014000140140F7
:103B0000508700080010024000001110800F0020B4
:103B1000040100A0403802400070004070470000DF
:103B20000A0D204A4F59535449434B205374617234
:103B3000742E2E2E2E0A0D00000000000000000042
:103B400080004000400000201717172809010200DC
:103B500002D4294881547047284B02F00F021A44BE
:103B600002F8041C7047264B19684FF6FF0200024A
:103B7000114000F4E0600843224908431860704790
:103B800038B51F4B1C68C4F30223C3F10704052C8E
:103B900028BF04241D1D072D34BF0023DB1E012573
:103BA00005FA04F4641E2140994005FA03F35B1EF4
:103BB0001A401143BDE83440C8E7010007D4012290
:103BC00000F01F01104B8A40400943F82020704745
:103BD00010B5401EB0F1807F01D3012010BD0B4C09
:103BE00060600F214FF0FF30FFF7B0FF0021A160B0
:103BF00007202060002010BD00E400E018ED00E088
:103C00000CED00E00000FA0500E100E010E000E04B
:103C10002DE9F84703460C464FF000086B480F218A
:103C20000122256802FA08FC0CEA0509E14540F08A
:103C3000B4806568022D18BF122D4FEA880A10D192
:103C40004FEAD80503EB850E0AF01C06DEF820507B
:103C500001FA06F7BD43276907FA06F63543CEF8A1
:103C600020504FEA480E03251E68277905FA0EF505
:103C7000ED4307F003072E4007FA0EF73E431E60A0
:103C80006668012E18BF022E03D0112E18BF122E07
:103C900010D19E68E7682E4007FA0EF73E439E60FB
:103CA0005E6826EA0C076668C6F3001606FA08F690
:103CB0003E435E60DE683540A66806FA0EF6354380
:103CC000DD606568ED0068D5002500954FEA980C29
:103CD00005683F4F45F4804505600AF00C0A056809
:103CE00005F480450095009D57F82C6001FA0AF50F
:103CF00026EA0505374EB34208BF00261DD0364ED2
:103D0000B34208BF012618D0344EB34208BF022682
:103D100013D0334EB34208BF03260ED0314EB34208
:103D200008BF042609D0304EB34208BF052604D090
:103D30002E4EB3420CBF0626072606FA0AF6354376
:103D400047F82C506FEA090C294F3D680CEA050E24
:103D50006568EE0348BF49EA0E0EC7F800E07D68CB
:103D60000CEA050E6568AE0348BF49EA0E0EC7F8B7
:103D700004E0BD680CEA050E6568EE0248BF49EA3A
:103D80000E0EC7F808E0FD680CEA050E6568AD0286
:103D900048BF49EA0E0EC7F80CE008F10108B8F177
:103DA0000F0F7FF63EAFBDE8F1870069084018BFEE
:103DB0000120C0B2704702B90904816170474269AD
:103DC0000A408A4208BF09048161704744380240B2
:103DD0000838014000000240000402400008024090
:103DE000000C024000100240001402400018024083
:103DF000003C014010B5044608230322812101F054
:103E000099FF0122E2621020FDF77AF8C4F89002CF
:103E100008B9022010BD00210173002010BD10B5AB
:103E20000446812101F091FF0022D4F89002E26261
:103E300020B101F0C6FF0020C4F89002002010BDA0
:103E400038B500F51D720024D369ADF800400D7837
:103E500015F0600516D0202D47D14A78022A0ED0E1
:103E6000032A06D00A2A06D00B2A3ED18D781D607F
:103E70003EE0012228E04888000A586038E001222C
:103E8000191D29E04D7835B1062D0CD00A2D1DD015
:103E90000B2D24D029E01278032A26D1022269466C
:103EA00001F091FF24E04A88274B120A222A05D10B
:103EB000CA88662AA8BF65220C3305E0212A14D1DE
:103EC000CA880A2A28BF0922194605E01278032A5F
:103ED0000BD1012203F1080101F075FF08E012780F
:103EE000032A02D18878986002E002F08CF902245B
:103EF000204632BD38B5134600F51D72D4691278DC
:103F0000032A04BF227B002A05D101250A46257316
:103F1000812101F041FF002032BD222101800B48A8
:103F20007047222101800A487047222101800948F8
:103F30007047D0F8900200210173002070470A21D9
:103F4000018005487047000014010020A8000020EF
:103F5000CC000020F00000208801002038B50400CB
:103F600001D1012032BD00F021F808B900F022F89B
:103F700000F012F800F023F8FFE7416100F001F8CB
:103F800032BD2068C16841F40051C1600020686002
:103F900020216970A9707047242068702068C1686A
:103FA00021F40051C160204600F09FB804F13805AB
:103FB0006878704700212970204602F0FBBB20681A
:103FC000016921F4904101612068416921F02A01D1
:103FD00070472DE9F843054605F138070C46787817
:103FE0002028164698463DD1002C14BF002E0120F3
:103FF00039D03878012835D0012139700020786017
:1040000021227A7002F0A2FCAE848146EE8403E0A5
:10401000296814F8010B4860E88C30B3E88C411E25
:10402000E9844B46A868CDF80080B0F5805F0DD1DB
:1040300000F025F870B920882968C0F308004860AE
:104040002869002814BF641CA41CE5E700F017F8D9
:104050000028DDD0032006E0202078700021397090
:10406000002000E00220BDE8F283CDF800804B463E
:104070000022402100F005F80028EDD0EAE70022F8
:1040800080212846FFE72DE9F041069C05460E46B3
:1040900090461F46286801683140B1420CBF01209C
:1040A0000020404517D114F1010FF3D024B102F0E4
:1040B0004DFCC01B8442EDD22868C16821F4D07148
:1040C00000F00CF805F138002021417081700021CA
:1040D0000170032000E00020BDE8F081C160286885
:1040E000416949084900416170472DE9F04704469C
:1040F000642522681169E06821F44051014311618F
:104100001926D3684948A168034020690B436169B7
:104110000343E0690B430343D3605169A06921F471
:10412000407101435161E36941484249B3F5004F91
:104130003BD18A4218BF82420ED101F0D3FC074620
:1041400001F0D0FC804601F0CDFC814601F0CAFCB4
:10415000824601F0C7FC0DE001F0BCFC074601F00F
:10416000B9FC804601F0B6FC814601F0B3FC824602
:1041700001F0B0FC6168490000F06DF8AE46BCFB90
:10418000FEFE05FB1E77FF0032376423B7FBF3F317
:104190005B0003F4F87300F04FF8ED003235642053
:1041A000B5FBF0F000F0070039E08A4218BF824208
:1041B0000ED101F097FC074601F094FC804601F017
:1041C00091FC814601F08EFC824601F08BFC0DE0F3
:1041D00001F080FC074601F07DFC804601F07AFC8E
:1041E000814601F077FC824601F074FC6168890029
:1041F00000F031F8AE46BCFBFEFE05FB1E773F012A
:1042000032376423B7FBF3F303F0F00300F014F844
:104210002D0132356420B5FBF0F000F00F0021686D
:10422000C3188B60BDE8F08700000000F369FFFF52
:10423000001401400010014003EB021306FB0AF7D3
:104240004643B7FBF1F2B6FBF1F06421B0FBF1F1AC
:1042500005FB112570477743B7FBF1F36422B3FBED
:10426000F2F206FB08F3B3FBF1F706FB09F3B3FB2D
:10427000F1FC704780B50B48016841F400710160A2
:10428000026842F480620260016841F4807101605A
:104290000320FFF768FC002002F05EFB01F0E2FF64
:1042A000002002BD003C0240002202F075BB00006D
:1042B00070B5044600250CB9012070BD04F13C0620
:1042C000706820B9204601F0E8FFB560357070686D
:1042D000C10610D4706820F4885040F0020070606D
:1042E000204600F0B0F8B560716821F0020141F09D
:1042F0000101716000E0012500203070284670BD8A
:1043000078B502460020009092F83C30012B01D194
:10431000022072BD012082F83C0007240B6810685F
:104320000A2B11D30A3BC56803EB430300F07FF867
:10433000C460C3680D688C68A5F10A0606EB4606E2
:10434000B4402343C3600FE0056903EB430304FA61
:1043500003F325EA0303036103690D688C6805EB29
:104360004505AC40234303611F244B68072B0CD247
:104370005B1E456B00F059F84463436B4D680C8835
:104380006E1E00F04DF843631BE00D2B0CD2DB1FBB
:10439000056B00F04AF80463036B4D680C88EE1F50
:1043A00000F03EF803630CE00D3BC56A00F03DF8F9
:1043B000C462C36A4D680C88A5F10D0600F030F8A0
:1043C000C3625F4B984226D10C685E48122C07D11D
:1043D000036823F400030360046844F48004046069
:1043E0000B685B4CA34218BF112B14D1036823F454
:1043F00080030360056845F4000505600868A04275
:1044000009D15249504C0B68B3FBF4F40A204443E1
:10441000009400F010F8002182F83C10002072BDDA
:1044200006EB8606B4402343704703EB83039C40AE
:1044300025EA0404704702E00098401E00900098AE
:104440000028F9D170473F4A116821F440311160CA
:10445000136841680B4313600268536823F4807348
:1044600053605168036941EA03215160516821F0AA
:1044700040715160536881680B435360936823F423
:10448000006393609368C1680B4393603149836A0A
:104490008B4210D0936823F0706393609368816AB5
:1044A0000B439360936823F0405393609368C16A11
:1044B0000B43936007E0916821F07061916091680F
:1044C00021F040519160916821F002019160916862
:1044D000037E41EA4301916090F820100029516861
:1044E0000CD041F400615160516821F46041516089
:1044F0005168436A5B1E41EA433101E021F40061E7
:104500005160D16A21F47001D162D16AC3695B1E26
:1045100041EA0351D162916821F400719160916880
:1045200090F8303041EA43219160916821F4806134
:1045300091609168406941EA802191607047000074
:10454000002001400423014040420F001C000020D5
:10455000120000100100000F10B5040001D101206D
:1045600010BD207920B900216171204601F0D1FEF3
:10457000022020710021216101202071002010BD46
:1045800070B54379012B01D1022070BD0123437125
:104590000224047140F6FE7503681C680E684968C1
:1045A00095400E43AC43964034431C60C0240168E0
:1045B0000B6804FA02F223EA02020A6000F001F832
:1045C00070BD01210171002242710020704700007E
:1045D000F8B5040018D000F07DF81CBFDFF8041116
:1045E000884207D0DFF8002190421CBFDFF8FC10A2
:1045F000884202D105F1300701E000F065F800F0D3
:104600007DF855F8200008B10120F2BD204601F0E8
:10461000A7FE3868401C38603968012918D1306815
:1046200020F0804030603168A0680143316032681A
:1046300022F47F0232602079012805D13168E068D8
:10464000401E41EA00413160306840F00040306077
:104650002068016821F4714101600368266962697C
:10466000A16916430E433343036003681B091B0112
:1046700003600268E369216A0B431A43026082689F
:1046800022F45F0282608168A36A626A5B1E42EA6A
:10469000034211438160416801F0070141604168B4
:1046A000236BE26ADB0043EA0223194341600122E3
:1046B000016841F08001016084F8342000F01EF8A8
:1046C00045F820400020F2BD05F134071035DFF831
:1046D000206070472068DFF81C60DFF81C50B04293
:1046E0007047000020600140406001406060014070
:1046F0000064014000600140B0100020FF21194A11
:1047000090421ABF184B9842002127D0174A904276
:104710001ABF174B9842012120D0164A90421ABF67
:10472000154B9842022119D0144A90421ABF144BDB
:104730009842032112D0134A904208BF04210DD0A1
:10474000114A904208BF052108D0104A904208BF84
:10475000062103D00E4A904208BF07210846704741
:104760000000000000600140006401402060014042
:1047700020640140406001404064014060600140AD
:104780006064014080640140A0640140C064014055
:10479000E064014038B5040001D1012032BD04F1CC
:1047A0004005687820B900212970204601F07BFE81
:1047B00000F040F86068216820F0706008612068AF
:1047C000816821F400418160E06821680128A068C7
:1047D0000CBF40F4004040F404408860E0680228C8
:1047E00003D120684FF4006141602068416841F0C6
:1047F000007141F4004141602068C16821F400412A
:10480000C16060692169A2690143206841EA02210F
:10481000C160206AE1692268014311602068016873
:1048200041F001010160002068602021697020636F
:10483000A87032BD242068702068016849084900CA
:104840000160704730B500F140025378202B0CD145
:104850001478012C09D000F00AF824F480541C606C
:1048600003681D68294319600DE0022030BD012353
:1048700013702424547003681D686D086D001D605A
:1048800003681C6870470068016841F0010101601D
:104890002020507000211170002030BD2DE9F04122
:1048A00004005BD004F14005687838B90021297014
:1048B0000FF27D106063204601F02CFE022068702C
:1048C000DFF854712068DFF85481C1693940C16153
:1048D0000220226810626069022836D0E068002851
:1048E000A0680CBF102620262128206838BF76003B
:1048F00040451BBFDFF8281188420120022000F04C
:1049000037FE21690A22B1F5007F0ED16369E168A3
:1049100021B1B600B0FBF6F0424303E0F600B0FB75
:10492000F6F14A43B2FBF3F005E0B0FBF6F0424388
:104930006069B2FBF0F0401D0A21B0FBF1F101F01B
:104940000100091A4908000201E0022100208A1E24
:10495000FE2A05D3686840F010006860012058E026
:10496000014320692268014311622268D3696168AA
:10497000A0683B400B43E1680343A0690B4303433A
:1049800043F40063D361A068302818BFB02804D175
:104990002068C16941F48051C161206A012834D185
:1049A000DFF88010DFF88020DFF880306163206856
:1049B00040450CBF1846104601680F400760276845
:1049C00047450CBF181D101D022101602668464591
:1049D0000CBF18461046D0F800E06068A168B0F53A
:1049E000007F16BF00284FF480770027E0680F4350
:1049F000A16907430F4347F40067BFB2464547EA42
:104A00000E0708BF1A46BFB2176000206860012178
:104A10006970BDE8F081000040F0FFFF0038004001
:104A2000003C0040098400081C4000401C34004049
:104A30001CB5044620688168009194F84120042A3E
:104A400032D10099CA0712D541684A060FD5C0680D
:104A500000F069F8608E50B92068416821F060016B
:104A60004160012284F84120204601F0AEFF009809
:104A7000410619D5206841688A0615D5416821F09C
:104A800060014160002001902168CA680192896834
:104A900001910121019884F84110606C40F00200FE
:104AA0006064204601F092FF94F84100032839D158
:104AB0000098810719D5206841680A0615D5616AF2
:104AC0000A88C260606A811C6162608D411E6185D6
:104AD000608D50B92068416821F0A001416001203B
:104AE00084F84100204601F072FF0098010719D5B3
:104AF000206841688A0615D5416821F0A00141600F
:104B0000002000902168886800900120009984F8B6
:104B100041002046616C41F004016164BDE816402B
:104B200001F054BF13BDE16A0880E06A821CE262B2
:104B3000608E411E61867047F8B5044601F006FF9D
:104B400006460CB90120F2BD04F140052878012881
:104B500001D10220F2BD01212970687838B9002105
:104B60002970204601F048FD41F28830A8603346A4
:104B700020680168A26821F4F851521E41EA02211E
:104B800001600022A868009000F030F8010024D1F4
:104B90002368DFF84C101E6862680E40E16846EA40
:104BA0000266E2690E43216A16430E431E602368C3
:104BB000DFF830105E68276962690E4046EA0746F2
:104BC000A16916430E435E6021680A6842F0010243
:104BD0000A600021696001226A7000212970F2BD1B
:104BE0002FFFFF00FEF8E0FF434600222021204671
:104BF000FFE72DE9F041069C05460E4690461F460C
:104C00002868816816EA010018BF0120404511D0CC
:104C100014F1010FF4D024B101F098FEC01B8442BE
:104C2000EED2042085F841000120696C41F00101B9
:104C3000696400E00020BDE8F081000038B50400A0
:104C400001D1012032BD04F13405287820B90021BA
:104C50002177204601F060FD03202870204600F0F7
:104C600007F800216960002020630121297032BD0E
:104C700078B589B00446002076260390049005900C
:104C800006900790089603A983B068461822FDF79E
:104C9000F7FD0EBC2068DFF8405001F099FE0020BF
:104CA0002860206801F0AAFE0120286004F1340584
:104CB000022002F0EBF8204600F0E9F918B920468E
:104CC00000F07BF928B1012129706A6810436860FF
:104CD00001200AB070BD0000A080254270B500F12F
:104CE00034031A6B120E94090C70C2F383044C70D7
:104CF00002F003028A701A6B120CCA701A6B120A45
:104D00000A711A6B4A715C6B240E2201CA805A6BBD
:104D1000CC88C2F3074244EA1214CC8002F00F029E
:104D20000A725A6BC2F30725EC094C72C5F3801264
:104D30008A724FF40074C5F34012CA72C5F30012B0
:104D40000A7300224A731A69002A40F08580AD0276
:104D500005F440650D610126086993F8342040EAA6
:104D600082000861986B0A69000E42EA90120A619B
:104D7000C0F3C2020A7500F007004875986B000284
:104D8000000E42098A75C0F382024000CA7500F025
:104D9000060008769A6B087E1204120E40EAD210C2
:104DA00008760D696D1C1D62087E801C06FA00F0F5
:104DB00045431D62087A86405E62760A75439D62AD
:104DC000DC62C2F380104876500000F07E008876E6
:104DD00093F838008A7E42EAD0128A7600F07F008B
:104DE000C876D86B000EC2090A77C0F341124A7721
:104DF000C0F3820280008A7700F00C00C877D86B7D
:104E0000CA7F0002000E42EA9012CA77C0F3401235
:104E100081F8202000F00100002201F8212F4870C5
:104E2000D86B0004000EC2098A70C0F38012CA70E9
:104E3000C0F340120A71C0F300124A71C0F381023C
:104E40008A7100F00300C871012293F83C00400809
:104E500008724A72002070BD012A1AD1586B0004F2
:104E600000F47C10086108699A6B120E40EA022077
:104E7000086108699A6B120240EA126008619A6B35
:104E800008695C62401C12048002120E186298626B
:104E900096E7006840F2FF5181630120596841F0B4
:104EA00080515960187070BD2DE9F841074607F12F
:104EB000340489B003200E4620702169032918BFED
:104EC000B6F5805F4CD0B6F5006F4FF080654FF4BB
:104ED00000681DD10023CDE90033386800F0D4F814
:104EE000800148BF454633D46946384600F01FF973
:104EF000F0B9019841032BD500F05AF8050027D1ED
:104F00003868022101F056FE050021D100251FE07E
:104F100016BB0021CDE90011386801F089FD800140
:104F200048BF454614D46946384600F000F908B138
:104F300005460DE00198C1030AD500F039F80500D7
:104F400006D13868002101F035FE050008BF0025B4
:104F500060680543656007E0606840F0006002E05B
:104F6000606840F0805060603D68606828B140F241
:104F7000FF51A9630120207017E078680390182280
:104F8000B9680491F9680591069603A978690790B4
:104F9000BE69089683B06846FDF772FC0EBC2846D1
:104FA00001F016FD0125257000200AB0BDE8F08152
:104FB000E1693868090401F0DCBD18B58FB004461A
:104FC0000121ADF80C10206801F01DFD10B94FF063
:104FD000806052E0606C032835D0206801F0FCFD51
:104FE00000284AD100F04FF8606700F048F8A06749
:104FF000082100F045F8E0670C2100F041F8C4F802
:105000008000606C03281ED0206803A901F0FDFD1C
:10501000002832D1606C032815D0BDF80C10216532
:105020000904206801F0E2FD38BB00F02CF860664E
:1050300000F025F8A066082100F022F8E0660C21B7
:1050400000F01EF8206700F01AF8000DE06404A9D3
:105050002046FFF743FE226D20681204002301F072
:1050600029FD50B983B0211D68461822FDF708FCC0
:105070000EBC206801F0ACFC002010B010BD042173
:10508000206801F0D5BC2068002101F0D1BC38B502
:10509000044600210091206801F01CFD002839D150
:1050A000206801F031FD4FF6FF75B0B10020A0641B
:1050B0000098411CA84200912DD02068002101F0E9
:1050C00058FD58BB2068002101F05EFD30BBFFF7A2
:1050D000DAFFC00FECD000201AE00120A064009895
:1050E000411CA842009116D02068002101F041FD2A
:1050F00080B920684FF0804101F046FD50B9FFF7BC
:10510000C2FF0146C00FEAD011F0804018BF012055
:105110006064002032BD4FF0807032BD4FF080508F
:1051200032BD029105926946206801F08CBCF8B549
:1051300088B004460D46002701F008FCCDE9007751
:1051400006462068082101F094FC002851D100F0A7
:105150005CF800284DD1082203924FF0FF31022263
:10516000029105923021012204910697079202A92B
:10517000FFF7DAFF206801F01FFD00283BD038E080
:105180008A0204D501F039FC4DF827007F1C01F09C
:10519000DDFB801B10F1010F2DD14FF0004028E006
:1051A000416B8A0748BF02212CD4416B8A0648BF55
:1051B000202127D440F2FF5181630098010201F4BD
:1051C0007F0141EA0061000A00F47F40014300983A
:1051D00041EA106169600198010201F47F01020A4D
:1051E00041EA006102F47F42114341EA1061296003
:1051F000002009B0F0BD00F00DF8416BC0D00A07E7
:10520000CED5082181630846F3E7216D20680904A3
:1052100001F0AFBC2068416B40F22A421142704756
:1052200010B50C4C0C490022204601F043FE08B199
:10523000FEF774FC0949204601F04FFE08B1FEF765
:105240006DFC204601F051FE18B1BDE81040FEF79C
:1052500065BC10BD0C09002020000020700000205B
:105260000EB4C0B5024603A800210190009101AB25
:105270000121044878440C30FCF77EFA06BC5DF846
:1052800010FB00BFB33600002DE9F84305460024AB
:105290002878DFF8A466C10708D5B068E96920F06E
:1052A000C0600843B060E86900B90124287881072C
:1052B00008D5B068296A20F0C0500843B060286A59
:1052C00000B90124286881040ED5B268A86C22F4C4
:1052D00040120243B260A86C08B9012404E0B0F5A2
:1052E000001F01D100F03BF9286841040ED5B268D7
:1052F000E86C22F440020243B260E86C08B9012471
:1053000004E0B0F5000F01D100F029F92878DFF8AA
:105310002C76010734D500200090396CDFF8208608
:1053200041F080513964386C00F080500090009852
:10533000D8F8001041F48071C8F8001001F006FBA5
:105340008146D8F80000C1055CD401F0FFFAA0EB5B
:1053500009000228F5D90320F3E001F0F7FAA0EBE9
:10536000080041F28931884265D3F4E7B86820F437
:10537000F810B860386F696AC1F30B0108433867E9
:105380002878410704D595F85400DFF8B81508606F
:105390002A78D00605D53169E86A21F44001014335
:1053A0003161297888060AD53169286B21F00061BE
:1053B00001433161296BB1F1006F08BF01242978E5
:1053C000480605D53169A86A21F080510143316151
:1053D0001CB92868802840F08680DFF86C850020A2
:1053E00000F0A6FA04463968080136D501F0AEFA95
:1053F000001B0228F7D9AEE701F0A8FA001B02282B
:105400006ED9A8E7386F10F440701EBF696A01F4C6
:105410004071884212D0386FDFF8301501220A60DF
:1054200000230B6020F440703867386FC10705D542
:1054300001F08CFA8046386F81078ED5696A01F4D5
:105440004070B0F5407F91D1BA68DFF8040522F4CE
:10545000F81201401143B9608CE7286DDFF8F414AD
:1054600008602968CA0701D5E86990B18A0701D5A3
:10547000286A70B1880603D52A6BB2F1006F08D094
:10548000490608D5A86A002804BF286BB0F1006F50
:1054900001D100F058F829688A0401D5A86C18B128
:1054A000490414D5E86C90B930686968AA6841EA83
:1054B000821100F070600843296940EA0170306091
:1054C000B068A9694009491E41EA4010B0602878D7
:1054D000010601D500F037F8012000F029FA044652
:1054E0003968080188D52968C80505D5B168686B91
:1054F00021F000410143B1602968880505D5B168F4
:10550000A86B21F400410143B1602968480505D525
:10551000B168E86B21F000410143B16029680805DA
:1055200005D5B168286C21F480410143B160296838
:10553000C80405D53169686C21F0404101433161EF
:105540000020BDE8F2836868A968EA6840EA811033
:10555000296940EA026040EA017030607047B06833
:10556000696920F4F850491E40EA0120B060704794
:1055700030B500210128DFF8C023DFF8DC43DFF875
:10558000DC53DFF8DC3302D002280DD05AE09068FB
:1055900010F0C06019D0B0F1007F13D0B0F1806F6F
:1055A00032D0B0F1C06F0BE0906810F0C0500CD05A
:1055B000B0F1006F06D0B0F1805F25D0B0F1C05FD0
:1055C0003BD03FE0DFF89C133CE01068410207D578
:1055D0001368DFF8900303F03F03B0FBF3F10DE035
:1055E0001868410205D5136803F03F03B5FBF3F1DA
:1055F00004E0116801F03F01B4FBF1F11068C0F361
:1056000088104143106813E01968480206D51A68EB
:10561000294602F03F02B1FBF2F104E0196801F003
:105620003F01B4FBF1F11868C0F3881041431868DA
:10563000C0F30270B1FBF0F104E0196848024CBFFE
:1056400029462146084630BD2DE9F8430646DFF8D5
:10565000EC523078C10745D5A86800F00C0004284A
:1056600007D0A86800F00C0008280BD16868410238
:1056700008D52868810335D57068002840F0B880C7
:1056800001204FE17068B0F5803F04D1286840F4F4
:105690008030286011E0B0F5A02F286806D140F4D2
:1056A00080202860296841F4803105E020F48030B2
:1056B0002860296821F480212960706868B101F0B0
:1056C00045F904462868810300F1928001F03EF913
:1056D000001B6528F6D3032024E101F037F90446C6
:1056E0002868810340F1848001F030F9001B6528AF
:1056F000F6D3F0E701F02AF9001B022840F2A5805A
:10570000E9E7F06870B10121396001F01FF9044642
:105710002868810700F1C78001F018F9001B0228F2
:10572000F6D9D8E7386001F011F9044629688807EE
:1057300061D501F00BF9001B0228F7D9CBE708600F
:1057400001F004F90446686F810773D501F0FEF893
:10575000001B0228F7D9BEE70528286F06D140F0C4
:1057600004002867286F40F0010005E04008400071
:105770002867286F20F00400286741F28938B06854
:1057800068B101F0E3F88146286F810700F1988045
:1057900001F0DCF8A0EB09004045F5D39BE701F0F0
:1057A000D5F88146286F810740F18A8001F0CEF854
:1057B000A0EB09004045F5D38DE701F0C7F8001BC9
:1057C000022840F2908086E701F0C0F8001B022812
:1057D00040F2A3807FE700F0A7F804462868810123
:1057E00040F19F8001F0B2F8001B0228F6D972E761
:1057F00030785D4F81071BD5A86810F00C0F09D0D9
:10580000A86800F00C0008287FF47BAF68684102AC
:105810003FF577AF2868810703D5F06801287FF44A
:105820002FAF2968306921F0F80141EAC0012960F1
:10583000317808070DD570694C4900283FF47FAFD7
:1058400001220A6001F082F80446686F81077FF543
:1058500051AF3078410738D5286C0024C1000AD4F4
:1058600000940124296C41F080512964286C00F0D7
:10587000805000900098DFF8C880D8F80000C1057B
:1058800019D4D8F8000040F4807000F051F8814637
:10589000D8F80000C1050ED401F058F8A0EB0900BB
:1058A0000228F5D917E72868316920F0F80040EAA6
:1058B000C1002860BCE7B06801287FF44DAF51E714
:1058C0001CB1286C20F080502864B06948B3A968E6
:1058D00001F00C0108293FF4D3AE02287FF47BAF1E
:1058E00000F022F80446286881013FF566AFF269AE
:1058F000306A716A0243B06A400842EA8112401E6F
:1059000042EA0042F06A316B42EA006242EA017206
:105910006A60012000F009F80446286881017FF5DB
:1059200053AF0020BDE8F2830020386601F00EB8C6
:10593000C8F8000001F00AB884380240003802407C
:1059400000700040E011474268004742400E474265
:10595000FFFCFF0FD81047420024F40000127A0029
:10596000043802400080BB0000004742800E4742DE
:1059700070B504000D46164601D1012070BD04F13A
:105980004801487820B900220A70204600F05FFFE5
:10599000206804F1080101F0D7FBA26820682946BD
:1059A00001F00CFC236BA2686068314601F031FC09
:1059B0002168A06851F8202042F0010241F820201F
:1059C000002070BD2DE9F04104000F4677D04A4E0B
:1059D000306800F00F00B84202D200F072F86ED1C9
:1059E0002068464D810712D5400703D5A96841F4C8
:1059F000E051A9602078010703D5A86840F4604011
:105A0000A860A968A06821F0F0010143A96021788D
:105A1000C8074CD56068012802D129688A0305E0CF
:105A2000022818BF032803D129688A0103D446E05D
:105A300029688A0743D5A968890840EA8100A860D7
:105A400000F084FF8046A868616800F00C00B0EBAD
:105A5000810F2CD000F07AFFA0EB080041F28931D1
:105A60008842F0D3032020E02078410705D5AA68BA
:105A7000E06822F4E0520243AA602178080706D5C4
:105A8000A968206921F4604141EAC001A96000F0E1
:105A90003FF8AA681A491B4BC2F30312895CC8403D
:105AA0001860002000F058FF0020BDE8F081306849
:105AB00000F00F008742D7D200F003F8D4D00120C5
:105AC000F3E73770316801F00F01B94270470D48B4
:105AD000006870470B480C4A006813680B49C3F311
